:020000040800F2
:10000000285F002085020008DF2E0008270A00086C
:10001000DD2E00088D080008753300080000000080
:10002000000000000000000000000000ED010008DA
:100030008F0800080000000031020008DD300008D1
:100040009F0200089F0200089F0200089F0200080C
:100050009F0200089F0200089F0200089F020008FC
:100060009F0200089F0200089F0200089F020008EC
:100070009F0200089F0200089F0200089F020008DC
:100080009F0200089F0200089F0200089F020008CC
:100090009F0200089F0200089F0200089F020008BC
:1000A0009F0200089F0200089F0200089F020008AC
:1000B0009F020008413100089F0200089F020008CB
:1000C0009F0200089F0200089F0200089F0200088C
:1000D0009F020008D93100089F0200089F02000813
:1000E0009F0200089F0200089F0200089F0200086C
:1000F0009F0200089F0200089F0200089F0200085C
:100100009F0200089F0200087D3100089F0200083E
:100110009F0200089F0200089F0200089F0200083B
:100120009F0200089F0200089F0200089F0200082B
:1001300000F002F800F04BF80AA090E8000C8244AE
:100140008344AAF10107DA4501D100F040F8AFF28B
:10015000090EBAE80F0013F0010F18BFFB1A43F0A5
:1001600001031847E073000000740000103A24BF38
:1001700078C878C1FAD8520724BF30C830C144BF0C
:1001800004680C607047000000230024002500264E
:10019000103A28BF78C1FBD8520728BF30C148BFEA
:1001A0000B607047642900F0D980752900F0D68073
:1001B000782900F00F81632900F09782732900F0FD
:1001C0009C82002070471FB51FBD10B510BD00F008
:1001D0002AFB1146FFF7F7FF03F086F900F048FB12
:1001E00003B4FFF7F2FF03BC03F0C5F8224B196814
:1001F0000868B0E8F00F80F30988BFF36F8F4FF005
:10020000000080F311884EF00D0E704700000000D2
:1002100006480068006880F3088862B661B6BFF3DC
:100220004F8FBFF36F8F00DF00BF00BF08ED00E00E
:10023000EFF30980BFF36F8F0F4B1A6820E9F00FBF
:10024000106008B54FF0500080F31188BFF34F8F56
:10025000BFF36F8F04F004FE4FF0000080F31188AD
:10026000BDE8084019680868B0E8F00F80F3098815
:10027000BFF36F8F704700BF44000020EFF305808D
:10028000704700000948804709480047FEE7FEE73D
:10029000FEE7FEE7FEE7FEE7FEE7FEE7FEE7FEE736
:1002A00004480549054A064B70470000F130000834
:1002B0003101000828590020285F0020285B002019
:1002C000285B0020704700000FB4044910B503AA52
:1002D000029800F017FA10BC5DF814FB2C00002007
:1002E0000FB41CB5074B06AA7B44694600900598DD
:1002F00000F0D9F90020694600F0E8F91CBC5DF86F
:1003000014FB0000E103000070B50C460546012A0D
:1003100005D02878800600D5EA69002302E0012391
:1003200005E05B1C934202D2E05C0028F9D1A86989
:10033000E618C01AA861286A184428622846AFF354
:10034000008004E0D5E9012114F8010B9047B44284
:10035000F8D32846AFF3008070BD00002DE9F041CE
:100360000646002410687529314616A510D0AFF353
:100370000080002802DA404213A507E031688A07AE
:1003800001D512A502E0490704D511A5012401E019
:10039000AFF3008000210A2206F1240709E0B0FB38
:1003A000F2FCB0FBF2F302FB1C003030785418462C
:1003B000491C0028F3D123462A463046BDE8F041C7
:1003C00000F012B9000000002D0000002B0000001A
:1003D0002000000070B504460D4621461068AFF3BA
:1003E00000802188090502D50F4A7A4402E00E4AAE
:1003F0007A440E32002104F1240305E000F00F06D8
:100400000009965D5E54491C0028F7D1207800232E
:10041000000704D5702D02D009B102231132204605
:10042000BDE8704000F0E0B81A7100002DE9F0411D
:100430000F4604460020DFF88480F84420622046FE
:10044000E168884790B3252806D0D4E90121904778
:10045000206A401C2062F2E700252046E1688847B8
:100460002028064608DB312E06D208EB060010F8DD
:10047000200C08B10543F0E7A80701D525F00405D5
:10048000A6B1A6F14100192802D8203645F400652E
:100490003A46314620462560FFF784FE48B10128E0
:1004A00005D0FF1D27F007070837C8E703E03F1D09
:1004B000C5E73046C9E7206ABDE8F081F270000068
:1004C00040EA0103024630B59B0710D14FF00134DA
:1004D00000E008C208C91D1B9D4315EAC41FF8D0DF
:1004E00013F0FF0102F8011B0DD01B0AF8E711F809
:1004F000013B002B02F8013B05D011F8013B002B1A
:1005000002F8013BF3D130BD10B5431C02E010F8F6
:10051000011B71B18107FAD14FF0013202C88C1A68
:100520008C4314EAC211F9D0C01A0A0603D0C01EC7
:1005300010BDC01A10BD0A0401D0801E10BD0902F2
:10054000FCD0401E10BD032A40F2308010F0030C96
:1005500000F0158011F8013BBCF1020F624498BF16
:1005600011F801CB00F8013B38BF11F8013BA2F1B3
:10057000040298BF00F801CB38BF00F8013B11F02E
:10058000030300F0D180083AC0F0088051F8043B22
:10059000083A51F804CBA0E80810F5E7121D5CBF3B
:1005A00051F8043B40F8043BAFF30080D20724BF6E
:1005B00011F8013B11F801CB48BF11F8012B24BF02
:1005C00000F8013B00F801CB48BF00F8012B704751
:1005D00002F0FF0343EA032242EA024200F0D8B8E5
:1005E00070477047704770472DE9F0470D469946B0
:1005F0009246044600F124080168880604D5E069A3
:1006000021F01001216000E00120A84201DD471B1C
:1006100000E00027A1697A1902EB0900081AA0611D
:100620002078C00602D42046AFF30080002608E000
:10063000D4E901211AF806009047206A401C761C74
:1006400020624E45F4DB2078C0060AD52046AFF381
:10065000008006E0D4E9012130209047206A401C48
:100660002062381EA7F10107F4DC07E0D4E901217C
:1006700018F805009047206A401C2062281EA5F14A
:100680000105F3DC2046AFF300802078000602D598
:100690000220BDE8F0870120FBE7000001694A1C49
:1006A00002610878704700B58FB0CDE901310021B3
:1006B000059105497944CDE9031011466846FFF7D5
:1006C000B5FE0FB000BD0000E5FFFFFF0A6802F8AD
:1006D000010B0A60704710B5436913B1AFF3008096
:1006E00001E0FFF711FE012010BD127800F1240196
:1006F0000A7000224A700122EDE711684FF0FF32C4
:10070000E9E70000074B70B50D467B44FFF7CBFFD0
:100710000446284600F05CF810B14FF0FF3070BD81
:10072000204670BDA72D000010B5203AC0F00B8008
:10073000B1E81850203AA0E81850B1E81850A0E8E5
:100740001850BFF4F5AF5FEA027C24BFB1E818503F
:10075000A0E8185044BF18C918C0BDE810405FEAAF
:10076000827C24BF51F8043B40F8043B08BF70472B
:10077000D20728BF31F8023B48BF11F8012B28BF30
:1007800020F8023B48BF00F8012B70474FF00002F1
:100790000429C0F0128010F0030C00F01F80CCF18F
:1007A000040CBCF1020F18BF00F8012BA8BF20F801
:1007B000022BA1EB0C0100F011B85FEAC17C24BF51
:1007C00000F8012B00F8012B48BF00F8012B7047FF
:1007D000007B00F0800070474FF0000200B5134628
:1007E00094469646203922BFA0E80C50A0E80C5051
:1007F000B1F12001BFF4F7AF090728BFA0E80C5002
:1008000048BF0CC05DF804EB890028BF40F8042BFA
:1008100008BF704748BF20F8022B11F0804F18BF67
:1008200000F8012B7047754600F02CF8AE46050025
:100830006946534620F00700854618B020B5FFF7FB
:100840002FFDBDE820404FF000064FF000074FF0AD
:1008500000084FF0000B21F00701AC46ACE8C009DE
:10086000ACE8C009ACE8C009ACE8C0098D467047E7
:1008700010B50446AFF300802046BDE81040FFF7F6
:10088000AFBC000000487047C4580020FEE7704726
:100890008000A0F1C0400029016802D041F00101B0
:1008A00001E0024A1140016070470000FEFF0F00A6
:1008B00010B5D0E901121143D0E903231A431143C3
:1008C0004269114382691143C2691143026A1143AB
:1008D000426A1143826A1143C26A1143026B114397
:1008E00002689200A2F1C04211608168082907D114
:1008F00001688900A1F1C0410A6842F040020A6023
:10090000416BD1E9002342EA03128B688C891B02F8
:1009100043EA04431A430B8A42EA03520B7D896976
:1009200042EA03620A4301688900A1F1C0414A60BA
:10093000C16AB1F5804F08D000686FF07041800047
:10094000A0F1C040C0F8041110BD816BD1E90023B3
:1009500042EA03128B680C8A1B0243EA04531A43CF
:100960000B7D896942EA036200680A438000A0F1B6
:10097000C040C0F8042110BDF0B5CC78002204F0CE
:100980000F03E40601D58C7823430C784FF00F0C4D
:1009900014F0FF0F4FF0010E1BD005680E880EFA01
:1009A00002F42640A64210D196000CFA06F725EA7A
:1009B000070703FA06F5CE783D43282E02D0482ECD
:1009C00002D002E0446100E00461521C082AE5D331
:1009D00005600A88FF2A1CD94468002202F1080633
:1009E0000EFA06F50E882E40AE420ED196000CFA95
:1009F00006F7BC4303FA06F7CE783C43282E00D115
:100A00004561CE78482E00D10561521C082AE5D3F5
:100A10004460F0BD0246002092680A4200D00120E6
:100A2000704701617047FEE708B50121442002F0DC
:100A30009FFA1C20ADF8000048208DF8030069469D
:100A40000648FFF799FF0120ADF8000028208DF837
:100A5000030069460248FFF78FFF08BD00180140F8
:100A6000000801402DE9F0412E4C2F4F2F4D01265B
:100A700008B1267001E02078A0B110212846FFF7C8
:100A8000C9FFB0B108212846FFF7C4FF88B104218F
:100A90002846FFF7BFFF60B101213846FFF7BAFFD4
:100AA000012806D010212846FFF7B4FF012824D0E2
:100AB00035E00A2002F084FC002020701021284636
:100AC000FFF7A8FF80B108212846FFF7A3FF70B108
:100AD00004212846FFF79EFF58B101213846FFF751
:100AE00099FF012807D01AE00120BDE8F08102201B
:100AF000FBE70320F9E70420F7E708212846FFF782
:100B000089FF01280BD104212846FFF783FF012824
:100B100005D101213846FFF77DFF00B9267000207E
:100B2000E3E7000024000020000801400018014015
:100B300070B509490646002408884D88214645437A
:100B4000204602F0A7F802F08FF9044801E0068081
:100B5000641CAC42FBD370BDA00400200008006CF4
:100B60002DE9F04F2B4B2C27194698712B2589889E
:100B70004FF4305A4FF4285B4FF4487441F6631E2B
:100B80002A264FF0F00845F210594FF4A07C4FF49C
:100B9000F072C8B1A3F800C0A3F80280494533D170
:100BA000A3F808A0A3F80AB0280298811C805A80F4
:100BB000A1F5A640103802D11A80A3F802C0BDE802
:100BC000F04F002001F0C4BFA3F80080A3F802C0DA
:100BD000494507D1A3F808A0A3F80AB04FF42C5058
:100BE000988104E071451F8104D15D819E811A8046
:100BF0005C8001E05E819D81A1F5A6401038DED1C8
:100C0000A3F800C05A80DAE71F815E8171459D819B
:100C1000CCD0CDE7A00400202DE9F047DFF89C9070
:100C200092464A46B9F80460DFF894C093890C0AEA
:100C3000050A5289A6F5A0480CF10207B8F5A2688A
:100C40000CD0A6F5C858B8F1630816D0ACF800204F
:100C50003D80C0B23880ACF8003024E0ACF8002011
:100C60003D80521CACF80020C0B23880ACF8003097
:100C70003C805B1CACF8003016E099F8066026B9A1
:100C8000B9F80050281A401E80B2ACF80020020AC1
:100C90003A80C5B23D803A80C0B23880ACF80030AE
:100CA0003C80C8B238803C80C8B23880B9F80800AF
:100CB000ACF80000A7F800A0BDE8F087A004002071
:100CC000FE07006C2DE9F04F01219FB0080202F0F1
:100CD00043F901214FF4B47002F04AF90120ADF854
:100CE0003C0010208DF83F0003248DF83E400FA9F2
:100CF000FE48FFF741FE4CF23370ADF83C0018257A
:100D00008DF83F508DF83E400FA9F948FFF734FEAB
:100D10004FF68070ADF83C008DF83F508DF83E40A6
:100D20000FA9F448FFF728FE41F20100ADF83C009E
:100D30008DF83F508DF83E400FA9EF48FFF71CFE9D
:100D40000120179000200F21CDE918011A901B9067
:100D50001C901D901090CDE911041490159006215F
:100D6000CDE9001016901021CDE9020113900490F6
:100D70000902CDE908010690059007908900CDE9A8
:100D80000A010C9017A80D9010A80E906846FFF766
:100D90008FFD01210620FFF77BFD322002F010FBC2
:100DA000D64CD320208001F0ABFED54DA88001F0B9
:100DB000A7FE2946888001F0A3FE4FF6FF7729465B
:100DC00007EA0020888001F09BFE294649F2413A5B
:100DD000898847F289760843294645F21038888089
:100DE00045F2105941F6631B504572D00420208013
:100DF00001F086FEA88001F083FEA88001F080FE4D
:100E000007EA0020A88001F07BFEA9880843A0F52E
:100E10000541A880523958D0B0425AD0D420208001
:100E200001F06EFEA88001F06BFEA88001F068FE64
:100E300007EA0020A88001F063FEA9880843A88083
:100E4000404546D055214FF4704002F017F8AA21D2
:100E50004FF2010002F012F852214FF2020002F0AC
:100E60000DF808214FF2030002F008F801214FF2BB
:100E7000040002F003F84FF44540208001F040FEEA
:100E800007EA0020A8804CF20150208001F038FED3
:100E9000A9880843A880052002F092FAA98849454C
:100EA00017D0A120208001F02BFEA88001F028FEA1
:100EB00007EA0020A88001F023FEA9880843A0F5D6
:100EC000AE41A880613902D003E0AE8001E0A5F810
:100ED00004B0A9888BA0FFF7F7F9A888874DAD1C4F
:100EE00050457DD1CF20208000202880C12028803F
:100EF00030202880ED202080642028800320288056
:100F00001220288081202880E820208085202880C9
:100F1000102028807A202880CB202080392028802B
:100F20002C2028800020288034202880022028803F
:100F3000F720208020202880EA20208000202880A0
:100F40002880C02020801B202880C12020800120F4
:100F50002880C5202080302028802880C72020803D
:100F6000B720288036202080482028803A20208002
:100F700055202880B1202080002028801A20288039
:100F8000B62020800A202880A2202880F2202080FD
:100F9000002028802620208001202880E02020803A
:100FA0000F2028802A2028802820288008202880B8
:100FB0000E2028800820288054202880A9202880FE
:100FC000432028800A2028800F20288000202880A5
:100FD000288028802880E12020800020288000E0D0
:100FE00031E0152028801720288007202880112034
:100FF0002880062028802B202880562028803C200E
:10100000288005202880102028800F2028803F205D
:10101000288028800F2028802B20208000202880F6
:101020002880012028803F2028802A20208000203E
:10103000288028802880EF20288011202080782098
:1010400002F0BEF99EE0B0427ED1112020807820CF
:1010500002F0B6F936202080002028803A20208037
:1010600005202880B22020800C20288028800020A5
:101070002880332028802880B720208035202880B1
:10108000BB20208032202880C02020800C20288097
:10109000C220208001202880C320208010202880AA
:1010A000C420208020202880C62020800F20288077
:1010B000D0202080A4202880A1202880E02020802B
:1010C000D020288000202880022028800720288027
:1010D0000A20288028202880322028804420288048
:1010E00042202880062028800E2013E0000C0140BA
:1010F000001401400018014000200140FE07006C70
:10110000A0040020204C43442049443A25780D0A8D
:10111000000000002880122028801420288017203A
:101120002880E1202080D0202880002028800220F4
:101130002880072028800A20288028202880312025
:1011400028805420288000E01FE0472028800E20BF
:1011500028801C202880172028801B2028801E2003
:1011600028802A2020800020288028802880EF20C6
:1011700028802B20208000202880288001202880A3
:101180003F202880292001F02EBC40457ED1ED2053
:10119000208001202880FE202880EE202080DE2074
:1011A000288021202880F120208001202880DF2035
:1011B000208010202880C42020808F202880C620F6
:1011C000208000202880E220288028802880BF20DE
:1011D0002080AA202880B02020800D202880002098
:1011E00028800D20288000202880112028800020C1
:1011F0002880192028800020288021202880002095
:1012000028802D202880002028803D202880002054
:1012100028805D202880002028805D2028800020F4
:101220002880B120208080202880002028808B20EA
:101230002880002028809620288000202880B22046
:1012400020800020288028800220288000202880FC
:101250000320288000202880B320208000202880C0
:10126000288028802880288028802880288028803E
:10127000288028802880288028802880288028802E
:101280002880288028802880288000E0FEE32880AD
:101290002880B42020808B20288000202880962061
:1012A000288000202880A120288000202880B520C8
:1012B0002080022028800020288003202880002011
:1012C00028800420288000202880B620208000204C
:1012D00028802880B72020800020288028803F2078
:1012E0002880002028805E2028800020288064201C
:1012F0002880002028808C20288000202880AC2096
:10130000288000202880DC20288000202880702071
:101310002880002028809020288000202880EB2032
:10132000288000202880DC20288000202880B82009
:1013300020800020288028802880288028802880FD
:1013400028802880BA20208024202880002028801F
:1013500028802880C120208020202880002028800C
:101360005420288000202880FF202880002028800A
:10137000C22020800A202880002028800420288085
:1013800000202880C32020803C2028800020288046
:101390003A202880002028803920288000202880BA
:1013A00037202880002028803C20288000202880AA
:1013B00036202880002028803220288000202880A5
:1013C0002F202880002028802C20288000202880A2
:1013D000292028800020288026202880002028809E
:1013E0002420288000202880242028800020288095
:1013F00023202880002028803C202880002028806E
:101400003620288000202880322028800020288054
:101410002F202880002028802C2028800020288051
:10142000292028800020288026202880002028804D
:101430002420288000202880242028800020288044
:101440002320288000202880C4202080622028803B
:1014500000202880052028800020288084202880E3
:1014600000202880F0202880002028801820288054
:1014700000202880A4202880002028801820288090
:101480000020288050202880002028800C202880E0
:101490000020288017202880002028809520288080
:1014A00000202880F320288000202880E620288043
:1014B00000202880C520208032202880002028801D
:1014C0004420288000202880652028800020288053
:1014D00076202880002028808820288000202880EE
:1014E000C6202080202028800020288017202880E7
:1014F000002028800120288000202880C72020800C
:1015000000202880288028802880C8202080002073
:101510002880288028802880C920208000202880DA
:10152000288028802880288028802880288028807B
:101530002880288028802880288028802880E02013
:10154000208016202880002028801C202880002051
:101550002880212028800020288036202880002014
:1015600028804620288000202880522028800020C3
:10157000288064202880002028807A20288000206D
:1015800028808B2028800020288099202880002017
:101590002880A820288000202880B92028800020CA
:1015A0002880C420288000202880CA20288000208D
:1015B0002880D220288000202880D9202880002060
:1015C0002880E020288000202880F3202880002028
:1015D0002880E120208016202880002028801C20E0
:1015E0002880002028802220288000202880362083
:1015F0002880002028804520288000202880522034
:1016000028800020288064202880002028807A20DC
:101610002880002028808B20288000202880992086
:10162000288000202880A820288000202880B92039
:10163000288000202880C420288000202880CA20FC
:10164000288000202880D220288000202880D820D0
:10165000288000202880E020288000202880F32097
:10166000288000202880E22020800520288000207B
:1016700028800B202880002028801B202880002024
:1016800028803420288000202880442028800020C2
:1016900028804F202880002028806120288000207A
:1016A0002880792028800020288088202880002019
:1016B00028809720288000202880A62028800020CD
:1016C0002880B720288000202880C2202880002081
:1016D0002880C720288000202880D1202880002052
:1016E0002880D620288000202880DD202880002027
:1016F0002880F320288000202880E32020800520F7
:101700002880002028800A202880002028801C2093
:101710002880002028803320288000202880442032
:1017200028800020288050202880002028806220E7
:101730002880002028807820288000202880882089
:101740002880002028809720288000202880A6203C
:10175000288000202880B720288000202880C220F0
:10176000288000202880C720288000202880D120C1
:10177000288000202880D520288000202880DD2097
:10178000288000202880F320288000202880E42062
:10179000208001202880002028800120288000202F
:1017A000288002202880002028802A2028800020ED
:1017B00028803C202880002028804B202880002082
:1017C00028805D2028800020288074202880002028
:1017D00028808420288000202880932028800020D2
:1017E0002880A220288000202880B3202880002084
:1017F0002880BE20288000202880C4202880002047
:101800002880CD20288000202880D3202880002018
:101810002880DD20288000202880F32028800020D8
:101820002880E520208000202880288028802880AB
:10183000022028800020288029202880002028805D
:101840003C202880002028804B20288000202880F1
:101850005D20288000202880742028800020288097
:101860008420288000202880932028800020288041
:10187000A220288000202880B320288000202880F3
:10188000BE20288000202880C420288000202880B6
:10189000CD20288000202880D32028800020288088
:1018A000DC20288000202880F32028800020288049
:1018B000E6202080112028800020288034202880E5
:1018C000002028805620288000202880762028802C
:1018D000002028807720288000202880662028800B
:1018E00000202880882028800020288099202880B7
:1018F00000202880BB202880002028809920288074
:1019000000202880662028800020288055202880FC
:10191000002028805520288000202880452028800D
:101920000020288043202880002028804420288010
:1019300000202880E7202080322028800020288076
:1019400055202880002028807620288000202880AC
:10195000662028800020288067202880002028809A
:101960006720288000202880872028800020288069
:101970009920288000202880BB20288000202880F3
:101980009920288000202880772028800020288027
:10199000442028800020288056202880002028808D
:1019A00023202880002028803320288000202880C1
:1019B0004520288000202880E820208000202880E2
:1019C00028809920288000202880872028800020D7
:1019D00028808820288000202880772028800020E8
:1019E00028806620288000202880882028800020E9
:1019F0002880AA20288000202880BB202880002062
:101A000028809920288000202880662028800020B7
:101A100028805520288000202880552028800020FC
:101A2000288044202880002028804420288000200E
:101A300028805520288000202880E9202080AA20A6
:101A4000288000202880288028802080AA202880C4
:101A5000CF2020800020288028802880288028808F
:101A60002880288028802880288028802880288036
:101A70002880288028802880F0202080002028804E
:101A80005020288000202880288000E02BE028803B
:101A9000F320208000202880F92020800620288044
:101AA0001020288029202880002028803A202080AB
:101AB0005520288011202080642001F081FC2920FD
:101AC0002080352020800020288051202080FF2089
:101AD0002880532020802C202880552020808220A0
:101AE00028802C20FDE348457ED14FF470495521D4
:101AF000484601F0C3F94FF20108AA21404601F01F
:101B0000BDF94FF202035221184601F0B7F94FF226
:101B100003050821284601F0B1F96E1C0121304669
:101B200001F0ACF90D214FF4304001F0A7F90D217F
:101B30004BF2010001F0A2F90D214BF2020001F07D
:101B40009DF94FF4364A3421504601F097F934217B
:101B50004BF2016001F092F934214BF2026001F086
:101B60008DF94FF4314B0D21584601F087F90D21C5
:101B70004BF2011001F082F90D214BF2021001F03D
:101B80007DF934214FF4374001F078F934214BF2DC
:101B9000017001F073F934214BF2027001F06EF91B
:101BA00000214FF4324001F069F900214BF201208D
:101BB00001F064F900214BF2022001F05FF92421C9
:101BC0004FF4384001F05AF924214BF6010001F09E
:101BD00055F924214BF6020001F050F901214FF490
:101BE0003F4001F04BF900E0FEE30F214FF433409A
:101BF00001F044F90F214BF2013001F03FF90F21C0
:101C00004BF2023001F03AF934214FF4394001F03F
:101C100035F934214BF6011001F030F934214BF63F
:101C2000021001F02BF908214FF4354001F026F99C
:101C300008214BF2015001F021F908214BF202502A
:101C400001F01CF903214FF4424001F017F924215F
:101C50004FF43A4001F012F924214BF6012001F033
:101C60000DF924214BF6022001F008F900214FF470
:101C70003C4001F003F978214BF6014001F0FEF8F9
:101C800000214BF6024001F0F9F800214FF43D40ED
:101C900001F0F4F878214BF6015001F0EFF8002143
:101CA0004BF6025001F0EAF800214FF43E4001F0FB
:101CB000E5F864214BF6016001F0E0F800214FF4F3
:101CC000514001F0DBF833214DF2011001F0D6F85C
:101CD00000214DF2021001F0D1F834214DF2031031
:101CE00001F0CCF800214DF2041001F0C7F83A21C0
:101CF0004DF2051001F0C2F800214DF2061001F07E
:101D0000BDF84A214DF2071001F0B8F800214DF25C
:101D1000081001F0B3F85C214DF2091001F0AEF8A3
:101D200000214DF20A1001F0A9F881214DF20B10AB
:101D300001F0A4F800214DF20C1001F09FF8A6214B
:101D40004DF20D1001F09AF800214DF20E1001F045
:101D500095F8E5214DF20F1001F090F801214DF2B8
:101D6000101001F08BF813214DF2111001F086F8DC
:101D700001214DF2121001F081F854214DF213109F
:101D800001F07CF801214DF2141001F077F8822166
:101D90004DF2151001F072F801214DF2161001F00C
:101DA0006DF8CA214DF2171001F068F802214DF2CA
:101DB000181001F063F800214DF2191001F05EF8DF
:101DC00002214DF21A1001F059F801214DF21B10B9
:101DD00001F054F802214DF21C1001F04FF83421AB
:101DE0004DF21D1001F04AF802214DF21E1001F0D3
:101DF00045F867214DF21F1001F040F802214DF225
:101E0000201001F03BF884214DF2211001F036F84A
:101E100002214DF2221001F031F8A4214DF22310DD
:101E200001F02CF802214DF2241001F027F8B7211F
:101E30004DF2251001F022F802214DF2261001F09A
:101E40001DF8CF214DF2271001F018F802214DF2B4
:101E5000281001F013F8DE214DF2291001F00EF8E0
:101E600002214DF22A1001F009F8F2214DF22B1057
:101E700001F004F802214DF22C1000F0FFFFFE21CA
:101E80004DF22D1000F0FAFF03214DF22E1000F05C
:101E9000F5FF10214DF22F1000F0F0FF03214DF25D
:101EA000301000F0EBFF33214DF2311000F0E6FF6F
:101EB00003214DF2321000F0E1FF6D214DF233109D
:101EC00000F0DCFF00214FF4524000F0D7FF332137
:101ED0004DF2012000F0D2FF00214DF2022000F06F
:101EE000CDFF34214DF2032000F0C8FF00214DF258
:101EF000042000F0C3FF3A214DF2052000F0BEFFA0
:101F000000214DF2062000F0B9FF4A214DF20720D2
:101F100000F0B4FF00214DF2082000F0AFFF5C217B
:101F20004DF2092000F0AAFF00214DF20A2000F036
:101F3000A5FF81214DF20B2000F0A0FF00214DF202
:101F40000C2000F09BFFA6214DF20D2000F096FF23
:101F500000214DF20E2000F091FFE5214DF20F20FF
:101F600000F08CFF01214DF2102000F087FF1321BB
:101F70004DF2112000F082FF01214DF2122000F0FD
:101F80007DFF54214DF2132000F078FF01214DF226
:101F9000142000F073FF82214DF2152000F06EFF37
:101FA00001214DF2162000F069FFCA214DF21720E1
:101FB00000F064FF02214DF2182000F05FFF0021C5
:101FC0004DF2192000F05AFF02214DF21A2000F0C4
:101FD00055FF01214DF21B2000F050FF02214DF270
:101FE0001C2000F04BFF34214DF21D2000F046FF75
:101FF00002214DF21E2000F041FF67214DF21F200B
:1020000000F03CFF02214DF2202000F037FF842138
:102010004DF2212000F032FF02214DF2222000F08B
:102020002DFFA4214DF2232000F028FF02214DF2C4
:10203000242000F023FFB7214DF2252000F01EFFE1
:1020400002214DF2262000F019FFCF214DF227206A
:1020500000F014FF02214DF2282000F00FFFDE21D6
:102060004DF2292000F00AFF02214DF22A2000F053
:1020700005FFF2214DF22B2000F000FF02214DF26E
:102080002C2000F0FBFEFE214DF22D2000F0F6FE8C
:1020900003214DF22E2000F0F1FE10214DF22F20F1
:1020A00000F0ECFE03214DF2302000F0E7FE33217A
:1020B0004DF2312000F0E2FE03214DF2322000F01B
:1020C000DDFE6D214DF2332000F0D8FE00214FF4EB
:1020D000534000F0D3FE33214DF2013000F0CEFE2C
:1020E00000214DF2023000F0C9FE34214DF20330E0
:1020F00000F0C4FE00214DF2043000F0BFFE3A2192
:102100004DF2053000F0BAFE00214DF2063000F02D
:10211000B5FE4A214DF2073000F0B0FE00214DF22D
:10212000083000F0ABFE5C214DF2093000F0A6FE55
:1021300000214DF20A3000F0A1FE81214DF20B305A
:1021400000F09CFE00214DF20C3000F097FEA6211D
:102150004DF20D3000F092FE00214DF20E3000F0F5
:102160008DFEE5214DF20F3000F088FE01214DF289
:10217000103000F083FE13214DF2113000F07EFE8E
:1021800001214DF2123000F079FE54214DF213304E
:1021900000F074FE01214DF2143000F06FFE822138
:1021A0004DF2153000F06AFE01214DF2163000F0BC
:1021B00065FECA214DF2173000F060FE02214DF29B
:1021C000183000F05BFE00214DF2193000F056FE91
:1021D00002214DF21A3000F051FE01214DF21B3068
:1021E00000F04CFE02214DF21C3000F047FE34217D
:1021F0004DF21D3000F042FE02214DF21E3000F083
:102200003DFE67214DF21F3000F038FE02214DF2F5
:10221000203000F033FE84214DF2213000F02EFEFC
:1022200002214DF2223000F029FEA4214DF223308C
:1022300000F024FE02214DF2243000F01FFEB721F1
:102240004DF2253000F01AFE02214DF2263000F04A
:1022500015FECF214DF2273000F010FE02214DF285
:10226000283000F00BFEDE214DF2293000F006FE92
:1022700002214DF22A3000F001FEF2214DF22B3006
:1022800000F0FCFD02214DF22C3000F0F7FDFE21A4
:102290004DF22D3000F0F2FD03214DF22E3000F012
:1022A000EDFD10214DF22F3000F0E8FD03214DF23D
:1022B000303000F0E3FD33214DF2313000F0DEFD2F
:1022C00003214DF2323000F0D9FD6D214DF2333053
:1022D00000F0D4FD00214FF4544000F0CFFD332135
:1022E00000E080E34DF2014000F0C8FD00214DF216
:1022F000024000F0C3FD34214DF2034000F0BEFD6A
:1023000000214DF2044000F0B9FD3A214DF20540A4
:1023100000F0B4FD00214DF2064000F0AFFD4A216F
:102320004DF2074000F0AAFD00214DF2084000F0F8
:10233000A5FD5C214DF2094000F0A0FD00214DF209
:102340000A4000F09BFD81214DF20B4000F096FD0C
:1023500000214DF20C4000F091FDA6214DF20D4000
:1023600000F08CFD00214DF20E4000F087FDE521CC
:102370004DF20F4000F082FD01214DF2104000F0BF
:102380007DFD13214DF2114000F078FD01214DF249
:10239000124000F073FD54214DF2134000F06EFD29
:1023A00001214DF2144000F069FD82214DF21540EB
:1023B00000F064FD01214DF2164000F05FFDCA21DE
:1023C0004DF2174000F05AFD02214DF2184000F086
:1023D00055FD00214DF2194000F050FD02214DF253
:1023E0001A4000F04BFD00E0FFE201214DF21B40DE
:1023F00000F044FD02214DF21C4000F03FFD34216D
:102400004DF21D4000F03AFD02214DF21E4000F059
:1024100035FD67214DF21F4000F030FD02214DF2E5
:10242000204000F02BFD84214DF2214000F026FDDC
:1024300002214DF2224000F021FDA4214DF2234063
:1024400000F01CFD02214DF2244000F017FDB721E1
:102450004DF2254000F012FD02214DF2264000F021
:102460000DFDCF214DF2274000F008FD02214DF275
:10247000284000F003FDDE214DF2294000F0FEFC73
:1024800002214DF22A4000F0F9FCF2214DF22B40DE
:1024900000F0F4FC02214DF22C4000F0EFFCFE2194
:1024A0004DF22D4000F0EAFC03214DF22E4000F0E9
:1024B000E5FC10214DF22F4000F0E0FC03214DF22D
:1024C000304000F0DBFC33214DF2314000F0D6FC0F
:1024D00003214DF2324000F0D1FC6D214DF233402A
:1024E00000F0CCFC00214FF4554000F0C7FC332134
:1024F0004DF2015000F0C2FC00214DF2025000F0FC
:10250000BDFC34214DF2035000F0B8FC00214DF227
:10251000045000F0B3FC3A214DF2055000F0AEFC3F
:1025200000214DF2065000F0A9FC4A214DF207505F
:1025300000F0A4FC00214DF2085000F09FFC5C214B
:102540004DF2095000F09AFC00214DF20A5000F0C3
:1025500095FC81214DF20B5000F090FC00214DF2D2
:102560000C5000F08BFCA6214DF20D5000F086FCC3
:1025700000214DF20E5000F081FCE5214DF20F508C
:1025800000F07CFC01214DF2105000F077FC13218B
:102590004DF2115000F072FC01214DF2125000F08A
:1025A0006DFC54214DF2135000F068FC01214DF2F6
:1025B000145000F063FC82214DF2155000F05EFCD7
:1025C00001214DF2165000F059FCCA214DF217506E
:1025D00000F054FC02214DF2185000F04FFC002195
:1025E0004DF2195000F04AFC02214DF21A5000F051
:1025F00045FC01214DF21B5000F040FC02214DF240
:102600001C5000F03BFC34214DF21D5000F036FC14
:1026100002214DF21E5000F031FC67214DF21F5097
:1026200000F02CFC02214DF2205000F027FC842108
:102630004DF2215000F022FC02214DF2225000F018
:102640001DFCA4214DF2235000F018FC02214DF294
:10265000245000F013FCB7214DF2255000F00EFC81
:1026600002214DF2265000F009FCCF214DF22750F7
:1026700000F004FC02214DF2285000F0FFFBDE21A7
:102680004DF2295000F0FAFB02214DF22A5000F0E1
:10269000F5FBF2214DF22B5000F0F0FB02214DF240
:1026A0002C5000F0EBFBFE214DF22D5000F0E6FB2C
:1026B00003214DF22E5000F0E1FB10214DF22F507E
:1026C00000F0DCFB03214DF2305000F0D7FB33214A
:1026D0004DF2315000F0D2FB03214DF2325000F0A8
:1026E000CDFB6D214DF2335000F0C8FB00214FF4BB
:1026F000564000F0C3FB33214DF2016000F0BEFBF9
:1027000000214DF2026000F0B9FB34214DF203606C
:1027100000F0B4FB00214DF2046000F0AFFB3A2161
:102720004DF2056000F0AAFB00214DF2066000F0BA
:10273000A5FB4A214DF2076000F0A0FB00214DF2FD
:10274000086000F09BFB5C214DF2096000F096FBF5
:1027500000214DF20A6000F091FB81214DF20B60E7
:1027600000F08CFB00214DF20C6000F087FBA621ED
:102770004DF20D6000F082FB00214DF20E6000F082
:102780007DFBE5214DF20F6000F078FB01214DF259
:10279000106000F073FB13214DF2116000F06EFB2E
:1027A00001214DF2126000F069FB54214DF21360DB
:1027B00000F064FB01214DF2146000F05FFB822108
:1027C0004DF2156000F05AFB01214DF2166000F049
:1027D00055FBCA214DF2176000F050FB02214DF26B
:1027E000186000F04BFB00214DF2196000F046FB31
:1027F00002214DF21A6000F041FB01214DF21B60F5
:1028000000F03CFB02214DF21C6000F037FB34214C
:102810004DF21D6000F032FB02214DF21E6000F00F
:102820002DFB67214DF21F6000F028FB02214DF2C5
:10283000206000F023FB84214DF2216000F01EFB9C
:1028400002214DF2226000F019FBA4214DF2236019
:1028500000F014FB02214DF2246000F00FFBB721C1
:102860004DF2256000F00AFB02214DF2266000F0D7
:1028700005FBCF214DF2276000F000FB02214DF255
:10288000286000F0FBFADE214DF2296000F0F6FA34
:1028900002214DF22A6000F0F1FAF2214DF22B6094
:1028A00000F0ECFA02214DF22C6000F0E7FAFE2174
:1028B0004DF22D6000F0E2FA03214DF22E6000F09F
:1028C000DDFA10214DF22F6000F0D8FA03214DF20D
:1028D000306000F0D3FA33214DF2316000F0CEFACF
:1028E00003214DF2326000F0C9FA6D214DF23360E0
:1028F00000F0C4FA5521484600F0C0FAAA2140462B
:1029000000F0BCFA5221184600F0B8FA0821284617
:1029100000F0B4FA0021304600F0B0FACC2158465D
:1029200000F0ACFA00214BF2011000F0A7FA0521EB
:10293000504600F0A3FA70214FF4374000F09EFAA1
:1029400070214BF2017000F099FA01214FF43840E8
:1029500000F094FA03214BF6010000F08FFA0321F6
:102960004BF6020000F08AFA03214BF6030000F058
:1029700085FA02214FF43C4000F080FA00214BF62A
:10298000014000F07BFA00214BF6024000F076FA9D
:10299000D0214FF4494000F071FA02214CF60110A9
:1029A00000F06CFA50214CF6021000F067FA50214A
:1029B0004CF6031000F062FA50214CF6041000F0BF
:1029C0005DFA00214FF4545000F058FA55214FF4AD
:1029D000685000F053FA4FF488502080782000F0BF
:1029E0000BFD4FF4245020807BE0584579D1E22044
:1029F00020801D2028800220288004202880642038
:102A000000F0FAFCE0202080012028800A2000F05D
:102A1000D7FCE0202080032028800C2000F0D0FC90
:102A2000012020800A2000F0CBFCE62020802F200F
:102A30002880FF2028802880B02020802020288027
:102A4000002028800320288040F21F3028800120A9
:102A5000288040F2DF10288000202880B4202080C9
:102A60000420288040F21F402880002028802E204B
:102A7000288000202880288028802880B620208078
:102A8000022028804FF4037028800020288017201F
:102A9000288015202880002028802880F020208091
:102AA0000320288029202080D0202080002028801A
:102AB000BE20208005202880FE202880012028803C
:102AC0000020288028802880B820208003202880AB
:102AD00001202880BA20208001202880642000F076
:102AE00019F80020FEF73CF804490120C1F88001E4
:102AF0003846FEF71DF81FB0BDE8F08F0080214278
:102B0000034808B50088ADF80000BDF8000008BD16
:102B10000008006C0C4A10B5BE211180941C0521E0
:102B2000218003F000F84FF06632084B03F00EF8F6
:102B300002F0CCFF208001202080FF202080002098
:102B40002080208010BD0000FE07006C66660440F7
:102B500070B54E4D00232946AA79898841F6631441
:102B6000012A01D01AB11BE0A14202D118E0A14212
:102B700016D1082814D2DFE800F00406080A0C0E6B
:102B8000101206200CE007200AE0042008E00520CF
:102B900006E0012004E0002002E0032000E0022023
:102BA000082812D2DFE800F0110406080A0C0E1003
:102BB00080230AE0402308E0C02306E0202304E04D
:102BC000602302E0A02300E0E02345F21056B1426A
:102BD00002D14FF4585000E03620A1F51342413A9B
:102BE00003D0A1F5EE42893A01D143F0080319461A
:102BF00000F044F9AA88A2420AD098062888698879
:102C000002D5884202D303E0884201D92980688036
:102C10001F48811CB2426A89028021D100230B80A7
:102C2000531C038000230B80931C03802B885B1EA6
:102C30001C0A0C80D21C0280DAB20A80AA890280A7
:102C400000230B80531C038000230B80931C038004
:102C50006B885B1E1C0A0C80D21C0280D8B212E06A
:102C600000220A800A802A88521E130A0B80D2B2E0
:102C70000A80AA8902800020088008806888401E97
:102C8000020A0A80C0B2088070BD0000A0040020C3
:102C9000FE07006C2DE9F043DFF8A490294F4A4667
:102CA000B9F804C09389050A0C0ABE1C5289ACF518
:102CB000C858B8F163080ED0ACF5A048B8F5A268C2
:102CC0003A80358033D0C0B230803B803480C8B287
:102CD0003080BDE8F083DFF868C099F80680BCF862
:102CE00000C0B8F1000F16D03A803580C0B23080F5
:102CF000ACF1010C4FEA1C2030800CF0FF0030805A
:102D00003B803480C8B23080B9F80200401E010A0E
:102D10003180C0B2DCE7ACEB0000401E80B23A80EC
:102D2000002232803280020A3280C0B2E7E7521CB1
:102D30003A80C0B230803B8034805B1C3B80C6E769
:102D4000A0040020FE07006C2DE9F84F82461F46C4
:102D50000C468B46580700D0012000EBD7007908BD
:102D60004843203AC0B202F0FF090026009041E03B
:102D70000C2F10D0102F12D0182F3ED1204909EB64
:102D8000C90001EB80004FF00008855D28060AD5D8
:102D90001C4802880BE009EB49001B49F1E71B497D
:102DA00001EB0910EFE70A9828B916484288214636
:102DB0005046FDF731FF6806050E1548641CA4B2A5
:102DC0004088A04219D9A4EB0B00B84209D10AF1FE
:102DD00001001FFA80FA0E485C46018851450CD963
:102DE00006E008F1010000F0FF08B8F1080FCDD3AC
:102DF000761CF6B200988642BAD3BDE8F88F000080
:102E0000AC67000820000020485D0008BC61000895
:102E1000A00400202DE9F84F044600F0FF08101927
:102E20000D46DDE90A761FFA80FA58191FFA80F973
:102E30004FF0000B11E0544502D3E819444685B227
:102E40004D450FD23B4629462046CDF800B0FFF74E
:102E50007BFF04EB570084B2761C3278A2F120008D
:102E60005E28E8D9BDE8F88F024803490089088048
:102E700070470000A0040020FE07006C024A10808A
:102E8000901C018070470000FE07006C38B50121DE
:102E9000482000F06DF82024ADF8004010208DF897
:102EA000030003200B4D8DF8020069462846FDF70C
:102EB00063FD20212846FDF7B4FDADF80040064C27
:102EC00069462046FDF758FD20212046FDF7A9FD63
:102ED00038BD0000000C014000180140FEE77047BB
:102EE00030B50F23C27801780125F2B1144A126877
:102EF00001F1E02102F4E062C2F5E062120AC2F1DF
:102F00000404D3404278A24084781C401443220138
:102F100081F80024007800F01F018D4040098000F6
:102F200000F1E020C0F8005130BD01F01F008540E5
:102F30004809800000F1E020C0F8805130BD000059
:102F40000CED00E0024908430249086070470000A8
:102F50000000FA050CED00E0044A0029516901D097
:102F6000014300E0814351617047000000100240BE
:102F7000044A0029916901D0014300E08143916135
:102F8000704700000010024030B5204A5168204BC5
:102F900011F00C0103D0042901D0082901D00360ED
:102FA00012E05168536801F470114FF0020413F4F9
:102FB000803F04EB914102D053689B0301D5154B30
:102FC00000E0134B5943016051680F2303EA1111CC
:102FD000114B5C5C0168E14041605468072505EADB
:102FE00014241C5D21FA04F48460546805EAD42496
:102FF0001B5DD940C1605268032303EA9232064B3D
:103000001B1F9A5CB1FBF2F1016130BD0010024060
:1030100000127A0000093D00340000200CB50022A7
:10302000264800920192016841F4803101604FF41A
:10303000A063016801F4003101910099491C0091DD
:10304000019911B900999942F3D10168890333D5E7
:10305000012101911A490A6842F010020A600A68C7
:1030600022F003020A600A6842F002020A60416824
:10307000416041684160416841F48061416041685C
:1030800021F47C114160416841F4E811416001681C
:1030900041F08071016001688901FCD5416821F02F
:1030A00003014160416841F0020141604168C1F3A0
:1030B00081010229FAD10CBD01920CBD0010024021
:1030C000002002404FF0E0210428086903D020F0DE
:1030D00004000861704740F00400FAE710B502F000
:1030E00099FA012803D0BDE8104001F033BF10BDAC
:1030F0000F4810B5016841F00101016041680D4AB7
:103100001140416001680C4A11400160016821F4DE
:1031100080210160416821F4FE0141604FF41F01EC
:103120008160FFF77BFF05494FF00060086010BD2C
:10313000001002400000FFF8FFFFF6FE08ED00E07F
:1031400010B5084C0121204600F039F8012802D1C1
:1031500005A0FDF7B9F82046BDE81040012100F0B8
:103160002BB800000004004054494D33CAE4B3F6C4
:103170002E2E2E2E2E2E2E0D0A00000010B5084CDD
:103180000121204600F01BF8012802D105A0FDF71F
:103190009BF82046BDE81040012100F00DB800006A
:1031A000000C004054494D35CAE4B3F62E2E2E2EA5
:1031B0002E2E2E0D0A000000C943018270470246E0
:1031C0000020138A92890B4202EA010202D0002AEF
:1031D00000D001207047000070B5154C40F2255119
:1031E000204600F035F800280ED0204600F0BEF84A
:1031F000104AC1B21088030406D444044FF00003FF
:1032000006D50A2901D0138070BD40F400400DE0BE
:103210000D2909D0C0F30D04074D401C80B229557B
:103220001080C728EFD870BD40F48040108070BD7A
:10323000003801402A000020AE04002000298189C6
:1032400002D041F4005101E021F400518181704726
:1032500070B501F01F0501260024C1F3421306FAE0
:1032600005F2012B0FD0022B0FD0838A4FEA1121D8
:103270000088134206FA01F600EA060001D000B108
:103280000124204670BD8389F0E7038AEEE710B57C
:10329000C1F3421301F01F040121A140012B07D00B
:1032A000022B07D01430002A026805D00A4304E03C
:1032B0000C30F8E71030F6E78A43026010BD0000DA
:1032C00030B50446008A85B00D464CF6FF710840C3
:1032D000E98801432182A0894EF6F3110840A988AC
:1032E0002A8911436A8902431143A181A08A4FF6BA
:1032F000FF410840A9890143A1826846FFF744FEC7
:103300001948844201D1039800E00298A189090478
:1033100000EBC00101EB0010296801D5490000E075
:103320008900B0FBF1F06422B0FBF2F109010B0956
:103330006FF018056B4300EB8300A3891D044FF069
:10334000320306D503EBC000B0FBF2F000F007003B
:1033500005E003EB0010B0FBF2F000F00F000843B3
:10336000208105B030BD0000003801408088C0F3E6
:1033700008007047FEE7704710B50420FFF7A2FE73
:103380000C480D490D4A0068B0FBF1F3B0FBF1F1B8
:103390004FF47A7041431370012050804FF0E020C9
:1033A000026942F0020202614161016941F00101DA
:1033B000016110BD0C00002040420F0026000020DB
:1033C00070B5044602F026F901280CD0094D688832
:1033D000844203D3B4FBF0F001F0E6FA6888B4FB52
:1033E000F0F100FB11444FF47A706043BDE8704087
:1033F00000F002B82600002070B54FF0E025002153
:103400006C69094AAB6912785043AA699A42FCD0A8
:1034100002D2A3EB020302E0A4EB020633441944F8
:1034200013468142F1D370BD2600002070B505001F
:1034300005D140F2FB4214A118A0FCF745FF1B4E3A
:103440003068854201D1002070BD01F067F96C69D8
:1034500001F0A0F9706B844202D0B06B844201D1BC
:10346000022070BD1248844204D1A86A0028F7D116
:10347000032070BD0E481438844202D00CB10120E4
:1034800070BD042070BD00002E2E5C467265655232
:10349000544F535C7461736B732E63004572726F8B
:1034A000723A25732C25640D0A00000044000020A8
:1034B0008808002004490A885206FCD5024AC1B295
:1034C000121D11807047000000380140054C4FF478
:1034D000FA75D4F89401C143C4F89411284601F058
:1034E00063FAF6E7008021421CB54FF44070FFF705
:1034F00029FDFFF741FF4FF4E13001F01FF8FFF71E
:10350000C5FCFDF791FAFDF7DDFB20494FF478404B
:10351000102408801EA0CDE900402346C8220A21BD
:103520001E20FFF777FC1FA0CDE900401E211023CD
:10353000C8220846FFF76EFC1FA0CDE9004010230B
:10354000C82232211E20FFF765FC1FA0CDE90040F4
:103550001023C82246211E20FFF75CFC1EA0CDE9E7
:1035600000401023C8225A211E20FFF753FC1D499A
:103570000120CDE90001002380221BA11D4801F09C
:10358000C9FF01F01BFC00201CBD00002000002032
:1035900041544B2053544D3332463130332F343065
:1035A000370000004672656552544F5320457861DC
:1035B0006D702031312D31005461736B20496E667E
:1035C0006F2051756572790041544F4D40414C490F
:1035D000454E54454B000000323031362F31312FEB
:1035E000323500000000002073746172745F7461F2
:1035F000736B0000D54400082DE9F041184E0F46CA
:103600000446F5683068001D00F0E8FF38B93068FE
:1036100090F82C1001208840316981433161601C91
:1036200007D137B13168BDE8F0410E48091D01F0FE
:1036300069B830682C44AC424460316805D2B06B44
:10364000BDE8F041091D01F045B8706B091D01F09E
:1036500041F8B06A844200D2B462BDE8F081000053
:1036600044000020880800202DE9F041054601F0C3
:1036700055F82D4EB068401CB06030682B4F10B12B
:10368000706930B32BE03560B068012827D1002481
:1036900004EB840007EB800001F00EF8641C202C82
:1036A000F6D3234801F008F82148143001F004F85B
:1036B0001F48283001F000F81D483C3000F0FCFFA6
:1036C0001B48503000F0F8FF194870631430B063A5
:1036D00005E03068E96AC06A884200D83560706ADF
:1036E0000121401C70626864E86A326981401143BC
:1036F000316100EB800007EB8000291D01F002F82A
:1037000001F048F8706900280CD03068E96AC06A96
:10371000884207D207494FF080500860BFF34F8FAF
:10372000BFF36F8FBDE8F08144000020B805002092
:103730003808002004ED00E010B500F0EFFF0E4C5B
:103740002068A0B90D4800F0B7FF0C48143000F015
:10375000B3FF0A48E06014302061002210210520E8
:1037600001F00EFC206010B105A101F0E9F8BDE800
:10377000104001F00FB80000800000209C080020DD
:10378000546D72510000000070B5124E124D1CE0D5
:1037900001F05EFB306820B1002402F069F8A4B9A2
:1037A00001E00124F9E700F0B9FFF068C468201DCA
:1037B00000F014FFA868401EA8606868401E68609A
:1037C00000F0E8FF204600F052F868680028DFD1DA
:1037D00070BD0000740800204400002030B4026C6A
:1037E0000B46002A0BD0C1681144C1604468A14255
:1037F00001D30168C16030BC1846FCF7A4BE30BCE0
:1038000070472DE9F041856B174604460026026C8F
:1038100082B1C7B1E068FCF796FEE168206C091A36
:10382000E1602268914202D26168081AE060022FCA
:1038300016D017E02068A8B9606801F073FF06464B
:10384000002060600EE0A068FCF77DFE216CA0689F
:103850000844A0606168884204D32068A06001E049
:1038600005B16D1E6D1CA5633046BDE8F08110B535
:103870000446006B00F0C0FF2046BDE8104000F099
:10388000BBBF000010484FF4A041420706D0C01D46
:103890000D4920F00700411AC1F5A0410B4A002351
:1038A0000144C2E900030839103A21F00701116010
:1038B0004B600B600B1AC0E9001393604FF000409F
:1038C0005360D06070470000C4080020A4000020AE
:1038D000074E4FF08054074DFFF756FF3068012820
:1038E000FAD92C60BFF34F8FBFF36F8FF4E700005E
:1038F000B805002004ED00E02DE9F047DDE909847A
:103900000E461746824691009946089DA522206BD7
:10391000FCF75EFE6FF00301206B01EB87010844AA
:1039200020F00707780705D040F22B3219A11EA01E
:10393000FCF7CAFC00202218315C82F83410315C9C
:1039400011B1401C1028F6D3002684F84360202DC6
:1039500000D31F25E562C4E91356201D00F0B7FE11
:1039600004F1180000F0B3FE2461C5F12000646288
:10397000A061666584F858604A465146384600F0B2
:1039800059FB2060B8F1000F01D0C8F80040BDE835
:10399000F08700002E2E5C4672656552544F535CD2
:1039A0007461736B732E63004572726F723A257384
:1039B0002C25640D0A00000030B5114900E01146C5
:1039C0000A688242FBD34B685C18844203D140688A
:1039D00018444860084643681C18944209D1084CB2
:1039E000103C2468A24209D052681A4442600A6816
:1039F00012680260814200D0086030BD0460F9E7BF
:103A0000A400002070B5002441600B4D006191427C
:103A100006D8D11A8269914206D2011D286907E0B1
:103A20009A4203D2994201D3012403E0011DE868C0
:103A300000F050FE204670BD8000002010B5044606
:103A400000F06CFEA06B20B1002400F0A3FE204625
:103A500010BD0124F9E72DE9F04781460868924638
:103A60000C460025F8B1486801F108064068486036
:103A7000B04201D140684860D0F80C80606842686C
:103A80006260B24201D151686160606805EBC501B6
:103A900009EB8101C76853460122384601F020F83E
:103AA0006D1C4745EAD12846BDE8F0872DE9F34172
:103AB00000980F460026846C2CB940F6CE1216A151
:103AC0001AA0FCF701FCA06BE16B884205D340F61D
:103AD000CF1211A115A0FCF7F7FBA06BE16B884298
:103AE0000CD294F945503A4669462046FFF789FEC4
:103AF0000646681C05D06D1C84F845503046BDE86C
:103B0000FC81606A0028F9D004F1240001F064FE11
:103B10000028F3D00126F1E72E2E5C46726565522F
:103B2000544F535C71756575652E63004572726FF5
:103B3000723A25732C25640D0A000000F8B505467D
:103B400014480E46C068C068C468201D00F046FDD9
:103B5000E069012817D1A0692B4641193246204659
:103B6000FFF750FF78B100200346014600902A4637
:103B7000204601F063FF30B907494FF4027201F1AA
:103B80001800FCF7A1FB616A01B02046BDE8F040D7
:103B90000847000080000020A059000870B586B0DA
:103BA0002F4E53E00198002806DADDE90301029A5E
:103BB00090470198002849DB039C606910B1201DE3
:103BC00000F00CFD05A800F0A7F8054601980A28AA
:103BD0003CD2DFE800F00505053B273805053B270B
:103BE0000298A169034601442A462046FFF70AFFCE
:103BF00000282BD0616A20468847E069012825D13A
:103C0000002000900298A16900234218194620461E
:103C100001F014FFD0B940F2213212A117A0FCF735
:103C200053FB13E00298A06128B94FF44E720DA126
:103C300012A0FCF749FBA0692B4641191A46204601
:103C4000FFF7E0FE02E0204600F0D6FD00231A4612
:103C500001A9306801F0D0F90028A3D106B070BDE9
:103C6000800000202E2E5C4672656552544F535CD6
:103C700074696D6572732E63000000004572726F87
:103C8000723A25732C25640D0A000000F8B50D4624
:103C9000064601F0DDF8684600F03EF8044600985C
:103CA00010B101F0E5FDF8BD1148ADB10169096839
:103CB000D9B10025311B2A46006800F053FE01F0FF
:103CC000D7FD0028EFD10B494FF080500860BFF3BB
:103CD0004F8FBFF36F8FF8BDA642EBD801F0C8FD40
:103CE00021463046FFF72AFFF8BD0125E2E7000034
:103CF0008000002004ED00E00648416B096829B10E
:103D0000416BC968C9684968816270474FF0FF31EB
:103D1000FAE700004400002070B5054601F088FC79
:103D2000064E0446B068844203D200F035F8012004
:103D300000E0002028602046B46070BD80000020B4
:103D4000F0B5026800252AB3426800F108065268FF
:103D50004260B24201D1536843604268D76842680A
:103D600052684260B24201D1536843604268D368EE
:103D700000229C1811F802C094F83440A44503D1E5
:103D800024B1521C102AF4D325B901E01D46FBE7EB
:103D9000BB42E4D12846F0BDF8B5184E26E0C06815
:103DA000C4680568201D00F019FC616A2046884738
:103DB000E06901281AD1A0692844A84206D92461E3
:103DC0006060211DF06800F085FC0FE000200346D4
:103DD000014600902A46204601F030FE30B90849DD
:103DE00040F2923201F11800FCF76EFAF0680168B7
:103DF0000029D4D13169C6E90310F8BD8000002044
:103E0000A059000808484068401C04D0F42207A1CB
:103E100011A0FCF759FA502080F31188BFF34F8F9F
:103E2000BFF36F8FFEE70000AC0000202E2E5C4633
:103E300072656552544F535C706F727461626C6549
:103E40005C525644535C41524D5F434D335C706F3E
:103E500072742E63000000004572726F723A25730F
:103E60002C25640D0A000000084CE068016839B197
:103E7000002139B10020FFF709FFFFF78FFEF4E7BB
:103E80000121F6E7C0680068F5E700008000002027
:103E90002DE9F041044600F041FC94F9455004F14D
:103EA000240610E0A06C20B100212046FFF7FEFDA3
:103EB00004E0606A48B1304601F08EFC08B100F0C1
:103EC000B9FE6D1E6DB2002DECDC4FF0FF3684F8AC
:103ED000456000F05FFC00F021FC94F9445004F1CF
:103EE000100709E0206948B1384601F075FC08B1B7
:103EF00000F0A0FE6D1E6DB2002DF3DC84F844606E
:103F0000BDE8F04100F046BC2DE9F0410546002631
:103F100000F09EFF324F386808B9FFF7B3FCF8682D
:103F200005424FD1002D4DD0083568070BD005F064
:103F30000700C0F108000544680704D0BF2229A18A
:103F400032A0FCF7C1F9002D3CD07868854239D801
:103F5000234910310846046801E0214604466068A0
:103F6000A84202D220680028F7D13868B8468442B7
:103F700028D00E682068086060680836401B10284A
:103F80000ED96719780704D0EC2216A11FA0FCF700
:103F90009BF96068401B786038466560FFF70CFD50
:103FA0006168D8F804004246401AC8F80400D8F8FE
:103FB0000830984200D29060D8F80C0001430020ED
:103FC000C4E9000101F054FC700705D04FF496726B
:103FD00004A10EA0FCF778F93046BDE8F08100009E
:103FE000940000202E2E5C4672656552544F535C3F
:103FF000706F727461626C655C4D656D4D616E676A
:104000005C686561705F342E630000004572726FFA
:10401000723A25732C25640D0A00000004490868D3
:1040200018B10868026D521C0265086870470000EC
:104030004400002010B5031F4FF080741C601B1F4C
:1040400021F001011960191F024B0B60143940382F
:104050000A6010BD053E00088EB05DA0FCF734F983
:1040600000F0CEFA044600EBC4008000FFF74CFFDE
:10407000050016D00CAA214600F0C8FA064664A036
:10408000FCF722F900240AE004EBC40005EB8000F1
:10409000D0E90113026967A0FCF716F9641CB44269
:1040A000F2D3284600F0A8FB67A0FCF70DF976A034
:1040B000FCF70AF902E00A20FFF782F90020FCF77A
:1040C000D1FC0428F7D176A0FCF7FEF884A001F01B
:1040D0004DFA0523012203A900F002FD83A00499F3
:1040E000FCF7F2F888A00599FCF7EEF89DF8181097
:1040F0008CA0FCF7E9F892A00799FCF7E5F897A0E7
:104100000899FCF7E1F89CA00A99FCF7DDF8BDF8E6
:104110002C10A1A0FCF7D8F84BA0FCF7D5F85AA0BA
:10412000FCF7D2F802E00A20FFF74AF90020FCF77A
:1041300099FC0428F7D19FA0FCF7C6F8ADA001F0C8
:1041400015FAFFF773F904460020009001900290E1
:10415000052C0AD2DFE804F0030515171900A8A101
:1041600000E0A9A16846FCF7BBF86A462146A8A072
:10417000FCF7AAF8AEA0FCF7A7F843A0FCF7A4F858
:1041800008E0BBA1EEE7BCA1ECE7BDA1EAE70A208D
:10419000FFF716F90020FCF765FC0428F7D1BAA058
:1041A000FCF792F8C74800F0DDFCC649C6A0FCF752
:1041B0008BF89FA0FCF788F8C54C4FF47A75D4F8BB
:1041C0009401C043C4F89401284600F0EDFBF6E7E3
:1041D0002F2A2A2A2A2A2A2A2AB5DAD2BBB2BDA332
:1041E000BABAAFCAFD75785461736B476574537979
:1041F0007374656D53746174652829B5C4CAB9D3E5
:10420000C32A2A2A2A2A2A2A2A2A2A2F0D0A000001
:104210005461736B4E616D6509095072696F726903
:10422000747909095461736B4E756D626572090981
:104230000D0A000025730909256409090925640987
:1042400009090D0A000000002F2A2A2A2A2A2A2AF0
:104250002A2A2A2A2A2A2A2A2A2A2A2A2A2A2A2ABE
:104260002A2A2ABDE1CAF82A2A2A2A2A2A2A2A2AF6
:104270002A2A2A2A2A2A2A2A2A2A2A2A2A2A2A2A9E
:104280002A2A2F0D0A000000B0B4CFC24B45595F57
:104290005550BCFCBCCCD0F8210D0A0D0A0D0A000B
:1042A0002F2A2A2A2A2A2A2A2A2A2A2A2AB5DAB6A2
:1042B000FEB2BDA3BABAAFCAFD765461736B47654F
:1042C00074496E666F2829B5C4CAB9D3C32A2A2A8D
:1042D0002A2A2A2A2A2A2A2A2A2A2A2F0D0A0000CA
:1042E0006C6564305F7461736B000000C8CECEF102
:1042F000C3FB3A2020202020202020202020202026
:1043000020202025730D0A00C8CECEF1B1E0BAC539
:104310003A2020202020202020202020202020257E
:10432000640D0A00C8CECEF1D7B3CCAC3A20202021
:10433000202020202020202020202025640D0A007D
:10434000C8CECEF1B5B1C7B0D3C5CFC8BCB63A2040
:104350002020202020202025640D0A00C8CECEF188
:10436000BBF9D3C5CFC8BCB63A20202020202020DE
:1043700020202025640D0A00C8CECEF1B6D1D5BBD1
:10438000BBF9B5D8D6B73A20202020202020202500
:1043900023780D0A00000000C8CECEF1B6D1D5BBFF
:1043A000C0FACAB7CAA3D3E0D7EED0A1D6B53A2592
:1043B000640D0A002F2A2A2A2A2A2A2A2A2A2A2A85
:1043C000B5DAC8FDB2BDA3BABAAFCAFD6554617310
:1043D0006B47657453746174652829B5C4CAB9D331
:1043E000C32A2A2A2A2A2A2A2A2A2A2A2A2A2F0DAC
:1043F0000A00000071756572795F7461736B00006B
:1044000052756E6E696E67005265616479000000D6
:10441000C8CECEF1D7B3CCACD6B53A25642CB6D441
:10442000D3A6B5C4D7B3CCACCEAA3A25730D0A0037
:104430002F2A2A2A2A2A2A2A2A2A2A2A2A2A2A2AD7
:104440002A2A2A2A2A2A2A2A2A2A2ABDE1CAF82A14
:104450002A2A2A2A2A2A2A2A2A2A2A2A2A2A2A2ABC
:104460002A2A2A2A2A2A2A2A2A2F0D0A000000008C
:1044700053757370656E640044656C657465000007
:10448000496E76616C6964002F2A2A2A2A2A2A2A10
:104490002A2A2A2A2A2AB5DAC8FDB2BDA3BABAAF97
:1044A000CAFD765461736B4C6973742829B5C4CA0C
:1044B000B9D3C32A2A2A2A2A2A2A2A2A2A2A2A2A8B
:1044C0002F0D0A00B800002025730D0A000000001F
:1044D000000023421CB500F021F90F490220CDE96C
:1044E0000001002380220DA10F4801F013F80A49B2
:1044F0000320091DCDE9000100234FF480720BA1B8
:104500000D4801F007F80448001F006800F082FA27
:10451000BDE81C4000F03EB9040000206C6564302A
:104520005F7461736B000000CD34000871756572B3
:10453000795F7461736B00005940000870B50546DF
:1045400086B0012144F20400FEF712FD4FF4007022
:10455000ADF8100003248DF8124018201D4E8DF880
:10456000130004A93046FCF707FA3015ADF8100027
:1045700004208DF8130004A93046FCF7FDF925202E
:104580008DF814008DF815408DF8164001208DF837
:10459000170005A8FEF7A4FC0020ADF80400ADF854
:1045A0000600ADF80800ADF80C000C200A4CADF880
:1045B0000A00009569462046FEF782FE012240F27D
:1045C00025512046FEF763FE01212046FEF736FE08
:1045D00006B070BD0008014000380140D0E901324A
:1045E00001699A60D0E901235A604A68824201D188
:1045F00082684A60002202610868401E08607047B5
:104600000148806870470000440000202DE9F04711
:1046100017460A4606460024202500F019FCDFF85C
:104620008C80D8F8080082423AD3DFF884906D1E5F
:1046300005EB850104EBC40009EB810106EB80006A
:104640000122FFF708FA0444002DF0D104EBC40066
:1046500006EB800002224546D8F83410FFF7FBF93C
:10466000044404EBC40006EB80000222A96BFFF7B0
:10467000F2F9044404EBC40006EB800004220D4967
:10468000FFF7E9F904440B4904EBC40006EB800092
:1046900003221431FFF7DFF904440FB10020386022
:1046A00001F0E6F82046BDE8F08700004400002055
:1046B000B80500207408002000F108014FF0FF3217
:1046C000C0E90112C1600161002101607047002151
:1046D0000161704730B50C68621C02D000F108021D
:1046E00002E0026904E01A4653681D68A542FAD93F
:1046F00053684B6099608A60516008610168491C89
:10470000016030BD42684A6093688B60936859606D
:10471000916008610168491C01607047502080F376
:104720001188BFF34F8FBFF36F8F09494868401C52
:10473000486001280AD10748006810F0FF0F05D033
:104740004FF4BD7204A10FA0FBF7BEBD704700007F
:10475000AC00002004ED00E02E2E5C467265655230
:10476000544F535C706F727461626C655C52564456
:10477000535C41524D5F434D335C706F72742E63D6
:10478000000000004572726F723A25732C25640D8B
:104790000A00000010B5084C606828B940F2811288
:1047A00006A111A0FBF790FD6068401E606001D17A
:1047B00080F3118810BD0000AC0000202E2E5C4656
:1047C00072656552544F535C706F727461626C65B0
:1047D0005C525644535C41524D5F434D335C706FA5
:1047E00072742E63000000004572726F723A257376
:1047F0002C25640D0A00000070B500282AD0164D43
:10480000A0F108046068E968084205D14FF4A0727D
:1048100012A11CA0FBF758FD206828B140F24112FC
:104820000EA118A0FBF750FD6068E968084211D09E
:104830002268002A0ED18843606000F009FB60689E
:104840006968084468602046FFF7B6F8BDE8704024
:1048500001F00EB870BD0000940000202E2E5C46C2
:1048600072656552544F535C706F727461626C650F
:104870005C4D656D4D616E675C686561705F342E7F
:10488000630000004572726F723A25732C25640D27
:104890000A00000006484FF47A710068B0FBF1F19D
:1048A0004FF0E020491E416107210161704700007F
:1048B0000C00002010B5FBF7E1FC104C10280CD3C5
:1048C00000F1E02090F8F0032178884205D24FF4FF
:1048D0002A720BA115A0FBF7F7FC18480068A16825
:1048E00000F4E060884207D9BDE810404FF42E7212
:1048F00003A10EA0FBF7E8BC10BD0000AC00002037
:104900002E2E5C4672656552544F535C706F727404
:1049100061626C655C525644535C41524D5F434D3D
:10492000335C706F72742E63000000004572726F0A
:10493000723A25732C25640D0A0000000CED00E08E
:1049400010B5074B002253F832401CB1521C082A04
:10495000F9D310BD43F8321003EBC201486010BD1B
:104960007805002070B515460E460446FFF7D6FEC2
:1049700094F944100020491C01D184F8440094F9B2
:104980004510491C01D184F84500FFF703FFA06BD7
:1049900028B92A46314604F1240000F07BF920466C
:1049A000BDE87040FFF774BA10B5040012D00E498C
:1049B000096B29B140F2CF420CA111A0FBF784FC96
:1049C00000F046FA00212046FEF716FE00F050FFE8
:1049D000002807D10E494FF080500860BFF34F8F79
:1049E000BFF36F8F10BD0000440000202E2E5C46E8
:1049F00072656552544F535C7461736B732E630020
:104A00004572726F723A25732C25640D0A000000FE
:104A100004ED00E070B50446FFF780FE234D04B9B5
:104A20002C68201DFFF7DAFD58B9E06A204A00EB38
:104A3000800152F8211021B9012181402869884361
:104A40002861A06A18B104F11800FFF7C7FD686A71
:104A5000401C68622868844207D1211D1548FFF771
:104A600051FE6868401C686007E0A868401EA860A6
:104A70002046FEF7FCFEFFF73FF9FFF78BFE686963
:104A8000002812D0286884420FD1286B28B140F248
:104A9000654209A10DA0FBF717FC10494FF08050AB
:104AA0000860BFF34F8FBFF36F8F70BD44000020CD
:104AB000B8050020740800202E2E5C4672656552F1
:104AC000544F535C7461736B732E63004572726F45
:104AD000723A25732C25640D0A00000004ED00E0F5
:104AE0002DE9F0471E4691460C4607000ED00546BC
:104AF00005F13400C4E90050E86A2061286BE061E8
:104B0000686CA060207B032803D00AE01448056885
:104B1000EEE700F09DF9A86A08B10220207300F0CA
:104B2000A7FE4FF00008E86CC4E90508052E01D087
:104B3000267303E03846FEF779FC2073B9F1000FC5
:104B40000BD00021286B01E0401C491C0278A52AEB
:104B5000FAD088082084BDE8F087A4F82080FAE71E
:104B6000440000202DE9FF410027054607702C482E
:104B700081680291806800EBC0008000FFF7C4F9F3
:104B800006004BD000220299FFF740FDCDE9020755
:104B900038463AE000EBC00006EB8001087B0128B4
:104BA0000FD002280FD003280FD004280FD00024E4
:104BB00049682846FBF784FC2846FBF7A5FC202122
:104BC00009E05224F4E74224F2E75324F0E74424B6
:104BD000EEE72954401C0F28FBD32F5405440398BB
:104BE00000EBC00006EB80008268018CCDE900126A
:104BF000036922460BA12846FBF772FB2846FBF708
:104C000083FC05440398401C039002998842C1D359
:104C100004B03046BDE8F041FFF7EEBDBDE8FF81CE
:104C200044000020092563092575092575092575A6
:104C30000D0A000001490120C861704744000020AE
:104C400070B50D46040005D140F6063207A10CA050
:104C5000FBF73AFB0E48016820461831FFF73AFD92
:104C60002846BDE870400121FEF7C6BC2E2E5C46EA
:104C700072656552544F535C7461736B732E63009D
:104C80004572726F723A25732C25640D0A0000007C
:104C90004400002070B514460E46050005D140F6CC
:104CA000313209A10DA0FBF70FFB1048016828461F
:104CB0001831FFF727FD0CB14FF0FF362146304683
:104CC000BDE87040FEF798BC2E2E5C4672656552BA
:104CD000544F535C7461736B732E63004572726F33
:104CE000723A25732C25640D0A0000004400002050
:104CF00070B5040039D01D4DE06A2968C96A884240
:104D000033D2A069002804DB2868C06AC0F1200003
:104D1000A061E06A164E00EB8000616906EB80003E
:104D200081421FD1201DFFF759FC012150B9E06AD3
:104D300000EB800256F8222022B92A6901FA00F01D
:104D400082432A612868C06AE0622A69814011436F
:104D5000296100EB800006EB8000211DBDE870405A
:104D6000FFF7D0BC2868C06AE06270BD4400002034
:104D7000B805002010B5040005D140F6C13205A1E8
:104D800009A0FBF7A1FA0C48016A2160C0686060C5
:104D900010BD00002E2E5C4672656552544F535C68
:104DA0007461736B732E63004572726F723A257370
:104DB0002C25640D0A000000440000201CB5174893
:104DC0000024CDE900402346822215A1164800F0B8
:104DD000A1FB012803D100F0F7FD01280AD0401CF7
:104DE0001BD102B040F28472BDE810400FA114A0A4
:104DF000FBF76ABA502080F31188BFF34F8FBFF3DF
:104E00006F8F06484FF0FF312C38816201214161DC
:104E1000C460BDE81C4000F061B81CBD70000020FB
:104E200049444C4500000000D13800082E2E5C4655
:104E300072656552544F535C7461736B732E6300DB
:104E40004572726F723A25732C25640D0A000000BA
:104E50000248016B491C01637047000044000020B8
:104E600070B5134D286B10B10120E86170BD0020B2
:104E7000E86128690F4EB0FA80F0C0F11F0000EB26
:104E8000800456F8240028B940F6F6220AA10FA0A3
:104E9000FBF71AFA06EB840000F108024168496842
:104EA0004160914201D149684160C868286070BD85
:104EB00044000020B80500202E2E5C467265655225
:104EC000544F535C7461736B732E63004572726F41
:104ED000723A25732C25640D0A0000001CB51A498E
:104EE00008780190FF20087008788DF800009DF880
:104EF0000000164A00F0500010700720906007E094
:104F00009068401E90609DF8000040008DF8000001
:104F10009DF800000006F3D4107A000200F4E0606F
:104F20009060019808700A48016841F470010160BE
:104F3000016841F070410160FFF7ACFC0020506057
:104F4000FBF766F900201CBD00E400E0AC00002087
:104F500020ED00E010B5502080F31188BFF34F8F93
:104F6000BFF36F8F00F06AFB18B104494FF0805017
:104F70000860002080F3118810BD000004ED00E0FF
:104F80002DE9F04117460E46050005D14FF4C472D5
:104F900010A115A0FBF798F9BEB105FB06F054303F
:104FA000FEF7B2FF04000ED004F154007EB1206081
:104FB000C4E90F562046012100F0E0F884F8507053
:104FC00000212046A164BDE8F0810020E7E72460CD
:104FD000EEE700002E2E5C4672656552544F535C1E
:104FE00071756575652E63004572726F723A25732F
:104FF0002C25640D0A0000002DE9FF4F83B09B466D
:105000008A4604004FF0000605D140F2DC4251A16F
:1050100055A0FBF759F9BAF1000F07D1206C28B160
:1050200040F2DD424BA150A0FBF74EF900F0F2FA3E
:1050300038B9059828B14FF49C6246A14AA0FBF705
:1050400043F94FF000094FF08057DFF82C81FFF74C
:1050500065FBA56B45B351462046E668FEF7BEFBEF
:10506000BBF1000F13D0E660606A50B104F1240078
:1050700000F0B2FB28B1C8F80070BFF34F8FBFF348
:105080006F8FFFF787FB012007B0BDE8F08F6D1E23
:10509000A563206810B9FEF7C1FF60602069002891
:1050A000EFD004F11000E3E7059808B11EB106E067
:1050B000FFF770FB27E06846FFF75CFE0126FFF76D
:1050C00069FBFFF7C5FEFFF729FB94F94400401C7C
:1050D00001D184F8449094F94500401C01D184F832
:1050E0004590FFF757FB05A9684600F0CFF9002867
:1050F00020460AD0FEF7CCFE00F0BAFB2046FEF7B1
:105100009DFC0028A3D00020BEE7FEF797FCD8B195
:10511000206830B9FFF702FB6068FFF7E9FDFFF791
:1051200039FB04F124000599FFF78AFD2046FEF7BC
:10513000AFFE00F09DFB002889D1C8F80070BFF3D6
:105140004F8FBFF36F8F82E72046FEF7A1FE00F07E
:105150008FFB7CE72E2E5C4672656552544F535C84
:1051600071756575652E63004572726F723A2573AD
:105170002C25640D0A00000004ED00E070B50D461A
:10518000040005D140F21B121CA121A0FBF79CF8E2
:10519000FFF7C4FAD4E90F20216802FB0011616017
:1051A0000021A1632168A1600A46D4E90F01401ED5
:1051B00000FB0121E16021464FF0FF3001F8440F70
:1051C000487004F110004DB1FFF776FA04F12400A5
:1051D000FFF772FAFFF7DEFA012070BD216900299E
:1051E000F8D000F0F9FA0028F4D00D494FF08050C3
:1051F0000860BFF34F8FBFF36F8FEBE72E2E5C4637
:1052000072656552544F535C71756575652E630008
:105210004572726F723A25732C25640D0A000000E6
:1052200004ED00E02DE9FF4F83B099468B46040062
:105230004FF0000605D140F2D92252A156A0FBF74B
:1052400043F8BBF1000F07D1206C28B140F2DA22FD
:105250004CA151A0FBF738F8B9F1020F08D1E06B6F
:10526000012805D040F2DB2246A14BA0FBF72CF829
:1052700000F0D0F938B9059828B140F2DE2241A1FA
:1052800045A0FBF721F84FF0000A4FF08057DFF8F8
:105290001881FFF743FAA06BE16B884206D3B9F19E
:1052A000020F03D0059800B316B325E04A465946CD
:1052B0002046FEF7A6FAA16C21B149462046FEF72A
:1052C000F5FB05E0616A19B104F1240000F084FAED
:1052D00028B1C8F80070BFF34F8FBFF36F8FFFF78F
:1052E00059FA012007B0BDE8F08FFFF753FA21E02B
:1052F0006846FFF73FFD0126FFF74CFAFFF7A8FDD0
:10530000FFF70CFA94F94400401C01D184F844A042
:1053100094F94500401C01D184F845A0FFF73AFA02
:1053200005A9684600F0B2F830B12046FEF7B0FD9E
:1053300000F09EFA0020D5E7FFF7F0F9A06BE16BD3
:10534000884201D1012500E00025FFF723FA95B13D
:1053500004F110000599FFF773FC2046FEF798FD55
:1053600000F086FA002894D1C8F80070BFF34F8F80
:10537000BFF36F8F8DE72046FEF78AFD00F078FAC5
:1053800087E700002E2E5C4672656552544F535CD1
:1053900071756575652E63004572726F723A25737B
:1053A0002C25640D0A00000004ED00E02DE9F04713
:1053B000984615468946040005D140F29F322AA13D
:1053C0002EA0FAF781FFB9F1000F07D1206C28B1A8
:1053D0004FF4687224A129A0FAF776FFB8F1020F02
:1053E00008D1E06B012805D040F2A1321EA123A014
:1053F000FAF76AFFFFF75EFA5020EFF3118780F3A8
:105400001188BFF34F8FBFF36F8FA06BE16B8842A2
:1054100007D3B8F1020F04D0002087F31188BDE84C
:10542000F08794F94560424649462046FEF7E9F97F
:10543000701C04D0761C84F845600120EDE7A06C58
:10544000012620B141462046FEF730FB06E0606AA7
:105450000028F2D004F1240000F0BEF90028ECD0BE
:10546000002DEAD02E60E8E72E2E5C46726565526C
:10547000544F535C71756575652E63004572726F8C
:10548000723A25732C25640D0A00000070B50D4694
:10549000040005D140F6CB3214A119A0FAF714FF8D
:1054A0002DB940F6CC3211A115A0FAF70DFFFFF788
:1054B00035F9174AD06829684B1C0FD02368126A47
:1054C000934202D0626882420AD96268801A884296
:1054D00006D2081A28602046FFF74CFC002400E0A2
:1054E0000124FFF757F9204670BD00002E2E5C46C0
:1054F00072656552544F535C7461736B732E630015
:105500004572726F723A25732C25640D0A000000F3
:10551000440000202DE9FF5F8346DDE90E879946B0
:1055200016468A469000FEF7EFFC05001AD05C2074
:10553000FEF7EAFC040012D025630021CDE9024108
:10554000CDE900874B46324651465846FEF7D4F91E
:105550002046FEF789F8012004B0BDE8F09F2846F8
:10556000FFF74AF94FF0FF30F6E700002DE9F04170
:1055700007462025FAF7C8FF102805D340F6D602C3
:1055800018A11DA0FAF7A0FEFFF762FC1E4E6D1ECB
:1055900005EB850006EB80003946FEF7D1FB0400E1
:1055A0001AD1002DF3D1194D3946686BFEF7C8FBAF
:1055B000040011D13946A86BFEF7C2FB04000BD1E1
:1055C00039461348FEF7BCFB040005D110483946A4
:1055D0001438FEF7B5FB044600F04AF92046BDE852
:1055E000F08100002E2E5C4672656552544F535C6C
:1055F0007461736B732E63004572726F723A257318
:105600002C25640D0A000000B8050020440000208D
:10561000880800200548416919B1006B18B10020C5
:1056200070470120704702207047000044000020AE
:105630000148C06870470000440000202DE9F04197
:105640002D4F0026386B40B1B869401CB861F8692D
:1056500000B101263046BDE8F081FD686D1CFD609B
:1056600011D1786B006828B140F6D91223A128A087
:10567000FAF72AFE786BB96B7963B863386A401C15
:105680003862FEF739FBB86ADFF89480854209D3A7
:10569000786B006880B1786BC068C46860688542C8
:1056A0000DD2B8623868C06A00EB800158F821005A
:1056B0000128CCD90126CAE74FF0FF30F1E7201DC1
:1056C000FEF78CFFA06A18B104F11800FEF786FF00
:1056D000E06A01213A6981401143396100EB8001A0
:1056E00008EB8100211DFFF70DF8E06A3968C96AEF
:1056F0008842CDD30126CBE7440000202E2E5C4605
:1057000072656552544F535C7461736B732E630002
:105710004572726F723A25732C25640D0A000000E1
:10572000B805002070B504004FF000063CD01F4DB6
:105730002868844205D040F6C7621DA121A0FAF76F
:10574000C3FD206D28B940F6C96219A11DA0FAF762
:10575000BBFD206D401E2065E26CE16A914223D0C2
:1057600010BB201DFEF73AFF1A49012250B9E06A2A
:1057700000EB800351F8233023B92B6902FA00F0C3
:1057800083432B61E06CE062C0F12000A061E06A1D
:105790002B6982401A432A6100EB800001EB8000F4
:1057A000211DFEF7AFFF0126304670BD44000020EA
:1057B0002E2E5C4672656552544F535C7461736B58
:1057C000732E63004572726F723A25732C25640D37
:1057D0000A000000B80500202DE9F041C068C46847
:1057E0002CB940F6613216A11AA0FAF76DFD04F14A
:1057F00018000746FEF7F2FE1A4D286B012660B12D
:1058000039461948FEF77EFFE06A2968C96A88426E
:1058100013D90120EE61BDE8F081201DFEF7DEFE08
:10582000E06A2A6906FA00F1114329610F4900EB89
:10583000800001EB8000211DE4E70020EBE7000081
:105840002E2E5C4672656552544F535C7461736BC7
:10585000732E63004572726F723A25732C25640DA6
:105860000A0000004400002060080020B805002065
:105870002DE9F0472B4D00242746286B28B94FF41B
:10588000FD6229A12DA0FAF71FFDFEF747FF286B47
:10589000401E2863286BE8BBA8682C490126C8B3C2
:1058A000A1F52A798846D8F80010E9B1D8F80C009B
:1058B000C46804F11800FEF791FE201DFEF78EFE6D
:1058C000E06A2A6906FA00F11143296100EB8001C0
:1058D00009EB8100211DFEF715FFE06A2968C96AFE
:1058E0008842E0D3EE61DEE70CB1FEF705FAAC6961
:1058F0003CB1FFF7A3FE00B1EE61641EF9D10020B8
:10590000A861E86930B11249012738070860BFF380
:105910004F8F00E001E0BFF36F8FFEF73BFF38468B
:10592000BDE8F087440000202E2E5C46726565526B
:10593000544F535C7461736B732E63004572726FC6
:10594000723A25732C25640D0A00000060080020BF
:1059500004ED00E02DE9F0470746994616460D464E
:105960002C20DDF820A0FEF7CFFA040014D0B846B2
:105970004F46D1462DB94FF4C67209A10EA0FAF7D1
:10598000A3FCFDF7D9FE04F11801C4F8008081E8FA
:10599000E002201DFEF79BFE2046BDE8F0870000D8
:1059A0002E2E5C4672656552544F535C74696D656A
:1059B00072732E63000000004572726F723A257395
:1059C0002C25640D0A0000001CB50024FDF7B4FE70
:1059D0000C48006868B10B491F20091DCDE9000182
:1059E00000234FF4827208A10948FFF793FD0400D9
:1059F00005D140F2331207A10CA0FAF765FC20464E
:105A00001CBD000080000020546D7220537663009E
:105A1000693E00082E2E5C4672656552544F535CF9
:105A200074696D6572732E63000000004572726FB9
:105A3000723A25732C25640D0A0000002DE9FF47FA
:105A4000DDF830A0994690460D4606004FF000075D
:105A500005D14FF4D37212A117A0FAF735FC1A4CF6
:105A6000206880B1CDE900580296062D11DAFFF7C3
:105A7000D1FD02284FF0000309D0002269462068BA
:105A8000FFF7D0FB074604B03846BDE8F087524622
:105A9000F4E700234A466946FFF788FCF2E7000076
:105AA0002E2E5C4672656552544F535C74696D6569
:105AB00072732E63000000004572726F723A257394
:105AC0002C25640D0A000000800000204FEA1153CD
:105AD000A3F58063D3F11E03A8BFD3F1200C08DB2C
